:020000040800F2
:10000000000002207D0B00080D1000080F100008F2
:10001000111000081310000815100008000000005F
:1000200000000000000000000000000017100008A1
:1000300019100008000000001B1000081D10000827
:10004000CD0B0008CD0B0008CD0B0008CD0B000830
:1000500000000000CD0B0008CD0B0008CD0B000800
:10006000CD0B0008CD0B0008CD0B0008CD0B000810
:10007000CD0B0008CD0B0008CD0B0008CD0B000800
:10008000CD0B0008CD0B0008CD0B0008CD0B0008F0
:10009000CD0B0008CD0B0008CD0B0008CD0B0008E0
:1000A000CD0B0008CD0B0008CD0B0008CD0B0008D0
:1000B000CD0B0008CD0B0008CD0B0008CD0B0008C0
:1000C000CD0B0008CD0B0008CD0B0008CD0B0008B0
:1000D000CD0B000831100008CD0B0008CD0B000837
:1000E000CD0B0008CD0B0008CD0B0008CD0B000890
:1000F000CD0B0008CD0B0008CD0B0008CD0B000880
:10010000CD0B0008CD0B0008CD0B0008CD0B00086F
:10011000CD0B0008CD0B0008CD0B0008CD0B00085F
:10012000CD0B0008CD0B0008CD0B0008CD0B00084F
:10013000CD0B0008CD0B0008CD0B0008CD0B00083F
:10014000CD0B0008CD0B0008CD0B0008CD0B00082F
:10015000CD0B0008CD0B0008CD0B0008CD0B00081F
:10016000CD0B0008CD0B0008CD0B0008CD0B00080F
:10017000CD0B0008CD0B0008CD0B0008CD0B0008FF
:08018000CD0B0008CD0B0008B7
:1001880010B5054C237833B9044B13B10448AFF3C9
:1001980000800123237010BD18000020000000001B
:1001A8000C12000808B5034B1BB103490348AFF311
:1001B800008008BD000000001C0000200C12000890
:1001C80070B50D4D0D4C641BA4100026A64209D134
:1001D8000B4D0C4C01F016F8641BA4100026A64227
:1001E80005D170BD55F8043B98470136EEE755F840
:1001F800043B98470136F2E724120008241200084D
:10020800241200082C12000870477047024B13B1E3
:10021800024800F005B870470000000035020008E9
:10022800002301461A46184600F014B838B5074DA1
:10023800074C641BA4101CB9BDE8384000F0E8BFA7
:10024800013C55F824309847F5E700BF2C12000808
:10025800301200082DE9F047DFF874A00646DAF8F6
:10026800000098460F469146FFF7CEFF164B1C68D4
:100278000CB9164C1C606568DAF800001F2D05DD06
:10028800FFF7C3FF4FF0FF30BDE8F0879EB104EBE6
:1002980085010122C1F88890D4F88831AA40134317
:1002A800C4F88831022EC1F8088102BFD4F88C3115
:1002B8001343C4F88C316B1C0235636044F8257015
:1002C800FFF7A3FF0020DFE7380000203C000020F4
:1002D80000000020042806D04FF0E022136923F024
:1002E8000403136170474FF0E022136943F00403DD
:1002F80013617047036823F0010303600023036060
:1003080043608360C3600361212343613C4B98428F
:100318002DD03C4B98422ED03B4B984230D03B4B93
:10032800984232D03A4B984234D03A4B984235D022
:10033800394B984236D0394B984237D0384B98428F
:1003480039D0384B98423AD0374B98423CD0374B4B
:1003580098423ED0364B984240D0364B984241D0D6
:10036800354B984242D0354B984243D07047103BAA
:100378003D229A607047283B4FF474629A60704738
:10038800403B4FF474129A607047583B4FF07462C8
:100398009A607047703B2A4ADA607047883B294A5E
:1003A800DA607047A03B284ADA607047B83B4FF0E4
:1003B8003D52DA607047103B3D229A607047283BF7
:1003C8004FF474629A607047403B4FF474129A601D
:1003D8007047583B4FF074629A607047703B184AF8
:1003E800DA607047883B174ADA607047A03B164AC4
:1003F800DA607047B83B4FF03D52DA60B6E700BFAD
:10040800106002402860024040600240586002408C
:100418007060024088600240A0600240B8600240FC
:10042800106402402864024040640240586402405C
:100438007064024088640240A0640240B8640240CC
:100448003D000020400F002000003D2010B403684C
:10045800134A1A400B68CC6823434C6923438C69C0
:100468002343CC6923430C6A23434C6A23438C6A95
:1004780023434C6B23438C6B234313430360426930
:1004880022F00702CB6A0C6B2343134343610B69C9
:1004980043604B6883608B68C3605DF8044B7047AA
:1004A8003F801CF021B1036843F0010303607047EB
:1004B800036823F0010303607047406880B2704707
:1004C80000220F2A4DD810B514E0C36894B2640016
:1004D8004FF0030E0EFA04FE23EA0E03C360C3684E
:1004E80091F807E00EFA0CFC43EA0C03C3600132F2
:1004F8000F2A35D8012393400C68A343F7D1046829
:100508004FEA420C032303FA0CF36FEA030E24EAC2
:100518000303036003680C7904FA0CF423430360B3
:100528000B79013BDBB2012BCFD883680EEA0303BA
:10053800836083684C7904FA0CF42343836043682E
:100548001FFA82FE012404FA0EF423EA040343602E
:1005580044688B7903FA0EF39BB223434360B4E7F4
:1005680010BD70470369194201D00120704700206F
:1005780070470AB18161704709048161704710B4FE
:1005880001F007039B009A40C908083150F8214040
:100598004FF00F0C0CFA03F324EA030340F8213060
:1005A80050F82130134340F821305DF8044B704770
:1005B80010B4294B9B6803F00C03042B23D0082BA1
:1005C80024D013B1254B036001E0244B0360224C77
:1005D800A368C3F303132249CA5CD2B20368D340A9
:1005E8004360A268C2F382228A5CD2B223FA02F282
:1005F8008260A268C2F342328A5CD2B2D340C3603E
:100608005DF8044B7047174B0360E0E7124B5968DD
:100618005A6802F03F0211F4800F12D0114BB3FB5D
:10062800F2F30D4A5268C2F3881202FB03F30A4A36
:100638005268C2F3014201325200B3FBF2F3036085
:10064800C5E7064BB3FBF2F3034A5268C2F38812BC
:1006580002FB03F3EBE700BF003802400024F4007C
:100668000400002040787D0121B1054A136B034343
:1006780013637047024A136B23EA0003136370473E
:100688000038024021B1054A136C034313647047D4
:10069800024A136C23EA00031364704700380240CF
:1006A80021B1054A536C034353647047024A536CA3
:1006B80023EA0003536470470038024030B585B020
:1006C80004460D46038A9BB223F44053CA88134359
:1006D800038283899BB223F4B05323F00C038988E7
:1006E80028896A8901430A431343A381A38A9BB2D9
:1006F80023F44073AA891343A3826846FFF758FF7F
:100708001F4B9C4205D003F580639C4201D0029B9D
:1007180000E0039BA28912F4004F1FD103EB83036F
:1007280003EB83032A689200B3FBF2F3154AA2FB9A
:10073800031252091101642002FB1033A28912F43A
:10074800004F14D11B0132330E4AA2FB0323C3F31B
:1007580043130B439BB2238105B030BD03EB8303E6
:1007680003EB83032A685200B3FBF2F3DEE7DB00F6
:100778003233044AA2FB0323C3F342130B43E9E7D2
:10078800001001401F85EB5129B183899BB243F4C6
:1007980000538381704783899BB223F400539BB233
:1007A80083817047C1F308018180704722B1838A31
:1007B8009BB20B4383827047838AC94389B219402D
:1007C80081827047C1F3421C01F01F0101238B4055
:1007D800BCF1010F08D0BCF1020F07D014303AB1B8
:1007E80002681343036070470C30F8E71030F6E7EF
:1007F800026822EA0303036070470388194201D0A4
:100808000120704700207047C1F3421201F01F0C0D
:10081800012303FA0CF3012A0FD0022A11D0828A8D
:1008280092B21340090A012202FA01F1028892B237
:100838000A4053B15AB900207047828992B21340D6
:10084800F0E7028A92B21340ECE7002070470120DB
:100858007047090A01238B409BB2DB439BB203809C
:10086800704700002DE9F043DDF81C80089F082838
:100878000DD8DFE800F0050E161E262E363E46007F
:10088800424C206B40F001002063A4F56054002026
:1008980049E03E4C206B40F002002063A4F5505420
:1008A800F5E73A4C206B40F004002063A4F540546F
:1008B800EDE7364C206B40F008002063A4F5305477
:1008C800E5E7324C206B40F010002063A4F520547B
:1008D800DDE72E4C206B40F020002063A4F5105477
:1008E800D5E72A4C206B40F040002063A4F5005463
:1008F800CDE7264C206B40F080002063A4F5E0543F
:10090800C5E7224C206B40F480702063A4F5C054E6
:10091800BDE7E5682E40E660E56807FA0EFC45EAA3
:100928000C05E56001300F282ED84FF0010C0CFAA9
:1009380000FC3CEA0105F5D1D4F800904FEA400EDE
:10094800032505FA0EF5EE4329EA05052560256815
:1009580002FA0EF945EA09052560551E012DD8D879
:10096800A5683540A560A56808FA0EF945EA0905A5
:10097800A560656825EA0C056560656803FA00FCF2
:1009880045EA0C056560C4E7BDE8F083003802401D
:1009980030B587B001211020FFF782FE01240194B1
:1009A8000225009500232A464FF4C0611846FFF738
:1009B80059FF01940095002322464FF40061184620
:1009C800FFF750FF184D072209212846FFF7D7FDEA
:1009D80007220A212846FFF7D2FD4FF41653029347
:1009E8000023ADF80C30ADF80E30ADF81030ADF88E
:1009F80014300C23ADF81230A5F5704502A928462D
:100A0800FFF75CFE21462846FFF7BEFE40F2244170
:100A18002846FFF71EFF224640F224412846FFF7EA
:100A2800D1FE07B030BD00BF0000024070B590B0E5
:100A380000241A4B1C7001214FF48000FFF714FEAC
:100A4800174D2846FFF756FC4FF000630193154BEE
:100A58000293154B039304942023059306944FF4B3
:100A680080630793089409944FF480730A934FF4B2
:100A780040330B930C9401260D960E940F9401A904
:100A88002846FFF7E3FC324640210848FFF78EFE70
:100A980031462846FFF706FD10B070BDD40100208E
:100AA8004064024004100140D801002000100140B9
:100AB80070B506460D4600240BE040210948FFF7B3
:100AC8009CFE0028F9D0315D0648FFF76BFE013423
:100AD800E4B2AC42F1D340210248FFF78EFE002871
:100AE800F9D070BD001001401E4B1B78A52B00D01B
:100AF80070471C4B1B795A2BFAD11A4B5A789B78A2
:100B080003EB0223184A12889342F1D1154BDB7884
:100B180013F0010F16D0154B0122C3F8A022114B78
:100B2800DB7813F0020F12D0104B0122C3F8A42275
:100B38000C4BDB7813F0040F0ED00D4B0122C3F8D9
:100B4800A0227047094B0022C3F8A022E7E7074B11
:100B58000022C3F8A422EBE7054B0022C3F8A02229
:100B6800C6E700BFF80100201A0200200000414239
:100B7800000040420D48854600F0EEFA0C480D4949
:100B88000D4A002302E0D458C4500433C4188C42E0
:100B9800F9D30A4A0A4C002301E013600432A24246
:100BA800FBD3FFF70DFB00F0FBF9FEE70000022086
:100BB8000000002018000020301200081800002053
:100BC8001C020020FEE770B582B001210846FFF73D
:100BD8004BFD01210220FFF747FD01210420FFF70B
:100BE80043FD01210820FFF73FFDA82000F0DCFAB3
:100BF800012501950224009400231A464FF4004170
:100C08001846FFF72FFE0195009400231A464FF46B
:100C180000512046FFF726FE0195009400231A464E
:100C280004210320FFF71EFE002601960094334698
:100C38002A464FF480713046FFF714FE019600945F
:100C480033462A464FF440712046FFF70BFE0A2030
:100C580000F0BEFA02B070BD38B54FF4005110482C
:100C6800FFF780FC044604210E48FFF77BFC05468D
:100C78004FF400410C48FFF775FC1CB90B4B0122DF
:100C88001A7038BD1DB9094B02221A70F9E718B954
:100C9800064B04221A70F4E7044B00221A70F0E79E
:100CA80000080240000C024000000240CF01002072
:100CB80070B588B001210846FFF7D6FC01214FF432
:100CC8000020FFF7DFFC012501950226009600238E
:100CD800324603211846FFF7C5FD032306938DF816
:100CE8001C6000248DF81E408DF81F508DF81D6083
:100CF800194E06A93046FFF7E3FB08222146304685
:100D0800FFF73DFC082229463046FFF738FC4FF430
:100D1800E1330293ADF80C40ADF80E40ADF8104049
:100D2800ADF814400C23ADF812300C4C02A9204643
:100D3800FFF7C4FC40F224412046FFF78AFD2A460B
:100D480040F224412046FFF73DFD29462046FFF7A3
:100D58001BFD08B070BD00BF00000240004C004001
:100D680000B583B0A5238DF800305A238DF80130E3
:100D780005238DF8023082238DF8033000238DF887
:100D8800043004238DF80530074A1388C3F307237A
:100D98008DF8063013888DF8073008216846FFF76C
:100DA80087FE03B05DF804FBD001002000B585B0D4
:100DB800A5238DF800305A238DF8013005238DF8CE
:100DC800023082238DF8033000238DF804308DF82B
:100DD8000530084A1388C3F307238DF806301388B3
:100DE8008DF8073008216846FFF762FE05B05DF808
:100DF80004FB00BFD001002038B5FFF72DFF614A82
:100E080013889BB201339BB213805F4B1B78012B75
:100E180026D0022B66D0042B00F0A6805B4B002264
:100E28001A80594B1A785A4B1A70564C2288594DC9
:100E380002F001024FF480712846FFF79AFB2288DE
:100E4800C2F340024FF400712846FFF792FB228854
:100E5800C2F380024FF480714F48FFF78AFB38BD18
:100E68004B4B1B78012B1CD1484A138801339BB28A
:100E78001380132B2AD943490B889BB201335A425A
:100E8800DBB2D2B258BF53429BB20B8041F28830DA
:100E980000F09EF9414B01221A703C4B12221A8035
:100EA80014E0114613889BB201335A42DBB2D2B226
:100EB80058BF53429BB20B8042F2107000F088F981
:100EC800364B01221A70314B00221A80334B1B78A3
:100ED800002BA6D0FFF744FFFFF768FF2F4B002237
:100EE8001A709EE72A4B1B78022B20D0254B1B88B3
:100EF8009BB223B1234B1B889BB2013B9BB2214A77
:100F0800138041F2883000F063F9244B01221A70F3
:100F18001E4B00221A80214B1B78002B81D0FFF733
:100F28001FFFFFF743FF1D4B00221A7079E7174A8E
:100F3800138801339BB21380132BECD911490B880A
:100F48009BB2013B5A42DBB2D2B258BF53429BB26A
:100F58000B8041F2883000F03BF9104B01221A70E7
:100F68000A4B12221A80D6E70023064A13800B4A3E
:100F780001211170054A1380FFF7F2FEFFF716FFF3
:100F88004FE700BFD0010020CF010020CC01002096
:100F9800CE0100200008024000000240D2010020DB
:100FA80008B5FFF710FEFFF7F3FCFFF73FFDFFF76B
:100FB8007FFE104B1B68104AA2FB03239B09013BD1
:100FC800B3F1807F0AD24FF0E02253610B4BF0213E
:100FD80083F823100023936107231361FFF70CFFA5
:100FE800074B1B78002BF9D0FFF77EFD044B00223E
:100FF8001A70F3E714000020D34D621000ED00E0F2
:10100800D30100207047FEE7FEE7FEE7FEE77047E2
:1010180070477047034B1B8813B1013B014A13808B
:10102800704700BF1802002070B540F224411348F1
:10103800FFF7EAFB00B970BD104DAB882B8801267D
:101048000F4B1E700F4C00212046FFF72BFA20464D
:10105800FFF733FAC0F12002D2B20B4B1A700B49DA
:101068000B4800F0C1F840F224412846FFF7F1FB95
:1010780031462046FFF716FADDE700BF00100140B1
:10108800D301002040640240D4010020D801002090
:10109800F801002082B00023019300932A4A1368C4
:1010A80043F480331360284B1B6803F40033009328
:1010B800019B01330193009B1BB9019BB3F5A04F22
:1010C800F1D1214B1B6813F4003F06D00123009394
:1010D800009B012B04D002B0704700230093F7E770
:1010E800194B1A6C42F080521A6418490A6842F483
:1010F80040420A609A689A609A6842F400429A608C
:101108009A6842F4A0529A60114A5A601A6842F0EA
:1011180080721A600C4B1B6813F0007FFAD00D4BDD
:1011280040F205621A60A3F580639A6822F0030210
:101138009A609A6842F002029A60034B9B6803F037
:101148000C03082BF9D1C6E70038024000700040B4
:1011580008544007003C024010B5104CD4F88830C1
:1011680043F47003C4F888300D4B1A6842F001024A
:101178001A60002199601A6822F0847222F4803281
:101188001A60084A5A601A6822F480221A60D960E4
:10119800FFF780FF4FF00063A36010BD00ED00E093
:1011A800003802401030002410B504466FF00400E7
:1011B800FFF790F8C4EB441304EB83044FF0E023EB
:1011C8005C6100229A611A6942F003021A6110BD3B
:1011D800044B1880034A1388591E1180002BF9D13B
:1011E800704700BF180200200A44914200F1FF3303
:1011F80000D1704710B511F8014B03F8014F914227
:10120800F9D110BDF8B500BFF8BC08BC9E467047C0
:0C121800F8B500BFF8BC08BC9E4670474B
:0812240015020008AD010008ED
:04122C00890100082C
:101230003400002000000000010203040102030446
:0812400006070809007A030A01
:0400000508000B7D67
:00000001FF
